{
  "_format": "hh-sol-artifact-1",
  "contractName": "WorldPurpose",
  "sourceName": "contracts/WorldPurpose.sol",
  "abi": [
    {
      "anonymous": false,
      "inputs": [
        {
          "indexed": true,
          "internalType": "address",
          "name": "owner",
          "type": "address"
        },
        {
          "indexed": false,
          "internalType": "string",
          "name": "purpose",
          "type": "string"
        },
        {
          "indexed": false,
          "internalType": "uint256",
          "name": "investment",
          "type": "uint256"
        }
      ],
      "name": "PurposeChange",
      "type": "event"
    },
    {
      "inputs": [],
      "name": "getBalance",
      "outputs": [
        {
          "internalType": "uint256",
          "name": "balance",
          "type": "uint256"
        }
      ],
      "stateMutability": "view",
      "type": "function"
    },
    {
      "inputs": [],
      "name": "getCurrentPurpose",
      "outputs": [
        {
          "components": [
            {
              "internalType": "address",
              "name": "owner",
              "type": "address"
            },
            {
              "internalType": "string",
              "name": "purpose",
              "type": "string"
            },
            {
              "internalType": "uint256",
              "name": "investment",
              "type": "uint256"
            }
          ],
          "internalType": "struct Purpose",
          "name": "currentPurpose",
          "type": "tuple"
        }
      ],
      "stateMutability": "view",
      "type": "function"
    },
    {
      "inputs": [
        {
          "internalType": "string",
          "name": "_purpose",
          "type": "string"
        }
      ],
      "name": "setPurpose",
      "outputs": [
        {
          "components": [
            {
              "internalType": "address",
              "name": "owner",
              "type": "address"
            },
            {
              "internalType": "string",
              "name": "purpose",
              "type": "string"
            },
            {
              "internalType": "uint256",
              "name": "investment",
              "type": "uint256"
            }
          ],
          "internalType": "struct Purpose",
          "name": "newPurpose",
          "type": "tuple"
        }
      ],
      "stateMutability": "payable",
      "type": "function"
    },
    {
      "inputs": [],
      "name": "withdraw",
      "outputs": [],
      "stateMutability": "nonpayable",
      "type": "function"
    }
  ],
  "bytecode": "0x608060405234801561001057600080fd5b5061106e806100206000396000f3fe60806040526004361061003f5760003560e01c806312065fe0146100445780633ccfd60b1461006f578063940f141114610086578063eb68757f146100b1575b600080fd5b34801561005057600080fd5b506100596100e1565b6040516100669190610bf8565b60405180910390f35b34801561007b57600080fd5b50610084610127565b005b34801561009257600080fd5b5061009b610325565b6040516100a89190610bd6565b60405180910390f35b6100cb60048036038101906100c691906108ef565b610431565b6040516100d89190610bd6565b60405180910390f35b60008060003373ffffffffffffffffffffffffffffffffffffffff1673ffffffffffffffffffffffffffffffffffffffff16815260200190815260200160002054905090565b60008060003373ffffffffffffffffffffffffffffffffffffffff1673ffffffffffffffffffffffffffffffffffffffff1681526020019081526020016000205490506000600160000160009054906101000a900473ffffffffffffffffffffffffffffffffffffffff1690503373ffffffffffffffffffffffffffffffffffffffff168173ffffffffffffffffffffffffffffffffffffffff1614156101dc57600160020154826101d99190610cf7565b91505b6000821161021f576040517f08c379a000000000000000000000000000000000000000000000000000000000815260040161021690610b36565b60405180910390fd5b816000803373ffffffffffffffffffffffffffffffffffffffff1673ffffffffffffffffffffffffffffffffffffffff168152602001908152602001600020600082825461026d9190610cf7565b9250508190555060003373ffffffffffffffffffffffffffffffffffffffff168360405161029a90610af1565b60006040518083038185875af1925050503d80600081146102d7576040519150601f19603f3d011682016040523d82523d6000602084013e6102dc565b606091505b5050905080610320576040517f08c379a000000000000000000000000000000000000000000000000000000000815260040161031790610bb6565b60405180910390fd5b505050565b61032d6107ad565b60016040518060600160405290816000820160009054906101000a900473ffffffffffffffffffffffffffffffffffffffff1673ffffffffffffffffffffffffffffffffffffffff1673ffffffffffffffffffffffffffffffffffffffff1681526020016001820180546103a090610da9565b80601f01602080910402602001604051908101604052809291908181526020018280546103cc90610da9565b80156104195780601f106103ee57610100808354040283529160200191610419565b820191906000526020600020905b8154815290600101906020018083116103fc57829003601f168201915b50505050508152602001600282015481525050905090565b6104396107ad565b3373ffffffffffffffffffffffffffffffffffffffff16600160000160009054906101000a900473ffffffffffffffffffffffffffffffffffffffff1673ffffffffffffffffffffffffffffffffffffffff1614156104cd576040517f08c379a00000000000000000000000000000000000000000000000000000000081526004016104c490610b76565b60405180910390fd5b6001600201543411610514576040517f08c379a000000000000000000000000000000000000000000000000000000000815260040161050b90610b96565b60405180910390fd5b6000829050600081511161055d576040517f08c379a000000000000000000000000000000000000000000000000000000000815260040161055490610b56565b60405180910390fd5b60405180606001604052803373ffffffffffffffffffffffffffffffffffffffff16815260200184815260200134815250600160008201518160000160006101000a81548173ffffffffffffffffffffffffffffffffffffffff021916908373ffffffffffffffffffffffffffffffffffffffff16021790555060208201518160010190805190602001906105f39291906107e4565b5060408201518160020155905050346000803373ffffffffffffffffffffffffffffffffffffffff1673ffffffffffffffffffffffffffffffffffffffff168152602001908152602001600020600082825461064f9190610ca1565b925050819055503373ffffffffffffffffffffffffffffffffffffffff167f447c0859d99fb40cddfb2a3f0ae93a9f88dd0b5667e46c910501d05396fe46a7843460405161069e929190610b06565b60405180910390a260016040518060600160405290816000820160009054906101000a900473ffffffffffffffffffffffffffffffffffffffff1673ffffffffffffffffffffffffffffffffffffffff1673ffffffffffffffffffffffffffffffffffffffff16815260200160018201805461071990610da9565b80601f016020809104026020016040519081016040528092919081815260200182805461074590610da9565b80156107925780601f1061076757610100808354040283529160200191610792565b820191906000526020600020905b81548152906001019060200180831161077557829003601f168201915b50505050508152602001600282015481525050915050919050565b6040518060600160405280600073ffffffffffffffffffffffffffffffffffffffff16815260200160608152602001600081525090565b8280546107f090610da9565b90600052602060002090601f0160209004810192826108125760008555610859565b82601f1061082b57805160ff1916838001178555610859565b82800160010185558215610859579182015b8281111561085857825182559160200191906001019061083d565b5b509050610866919061086a565b5090565b5b8082111561088357600081600090555060010161086b565b5090565b600061089a61089584610c38565b610c13565b9050828152602081018484840111156108b257600080fd5b6108bd848285610d67565b509392505050565b600082601f8301126108d657600080fd5b81356108e6848260208601610887565b91505092915050565b60006020828403121561090157600080fd5b600082013567ffffffffffffffff81111561091b57600080fd5b610927848285016108c5565b91505092915050565b61093981610d2b565b82525050565b600061094a82610c69565b6109548185610c7f565b9350610964818560208601610d76565b61096d81610e99565b840191505092915050565b600061098382610c69565b61098d8185610c90565b935061099d818560208601610d76565b6109a681610e99565b840191505092915050565b60006109be602a83610c90565b91506109c982610eaa565b604082019050919050565b60006109e1602183610c90565b91506109ec82610ef9565b604082019050919050565b6000610a04602483610c90565b9150610a0f82610f48565b604082019050919050565b6000610a27603783610c90565b9150610a3282610f97565b604082019050919050565b6000610a4a602c83610c90565b9150610a5582610fe6565b604082019050919050565b6000610a6d600083610c74565b9150610a7882611035565b600082019050919050565b6000606083016000830151610a9b6000860182610930565b5060208301518482036020860152610ab3828261093f565b9150506040830151610ac86040860182610ad3565b508091505092915050565b610adc81610d5d565b82525050565b610aeb81610d5d565b82525050565b6000610afc82610a60565b9150819050919050565b60006040820190508181036000830152610b208185610978565b9050610b2f6020830184610ae2565b9392505050565b60006020820190508181036000830152610b4f816109b1565b9050919050565b60006020820190508181036000830152610b6f816109d4565b9050919050565b60006020820190508181036000830152610b8f816109f7565b9050919050565b60006020820190508181036000830152610baf81610a1a565b9050919050565b60006020820190508181036000830152610bcf81610a3d565b9050919050565b60006020820190508181036000830152610bf08184610a83565b905092915050565b6000602082019050610c0d6000830184610ae2565b92915050565b6000610c1d610c2e565b9050610c298282610ddb565b919050565b6000604051905090565b600067ffffffffffffffff821115610c5357610c52610e6a565b5b610c5c82610e99565b9050602081019050919050565b600081519050919050565b600081905092915050565b600082825260208201905092915050565b600082825260208201905092915050565b6000610cac82610d5d565b9150610cb783610d5d565b9250827fffffffffffffffffffffffffffffffffffffffffffffffffffffffffffffffff03821115610cec57610ceb610e0c565b5b828201905092915050565b6000610d0282610d5d565b9150610d0d83610d5d565b925082821015610d2057610d1f610e0c565b5b828203905092915050565b6000610d3682610d3d565b9050919050565b600073ffffffffffffffffffffffffffffffffffffffff82169050919050565b6000819050919050565b82818337600083830152505050565b60005b83811015610d94578082015181840152602081019050610d79565b83811115610da3576000848401525b50505050565b60006002820490506001821680610dc157607f821691505b60208210811415610dd557610dd4610e3b565b5b50919050565b610de482610e99565b810181811067ffffffffffffffff82111715610e0357610e02610e6a565b5b80604052505050565b7f4e487b7100000000000000000000000000000000000000000000000000000000600052601160045260246000fd5b7f4e487b7100000000000000000000000000000000000000000000000000000000600052602260045260246000fd5b7f4e487b7100000000000000000000000000000000000000000000000000000000600052604160045260246000fd5b6000601f19601f8301169050919050565b7f596f7520646f6e2774206861766520656e6f756768207769746864726177616260008201527f6c652062616c616e636500000000000000000000000000000000000000000000602082015250565b7f596f75206e65656420746f20736574206120707572706f7365206d657373616760008201527f6500000000000000000000000000000000000000000000000000000000000000602082015250565b7f596f752063616e6e6f74206f7665727269646520796f7572206f776e2070757260008201527f706f736500000000000000000000000000000000000000000000000000000000602082015250565b7f596f75206e65656420746f20696e76657374206d6f7265207468616e2074686560008201527f2070726576696f757320707572706f7365206f776e6572000000000000000000602082015250565b7f4661696c656420746f2073656e6420757365722062616c616e6365206261636b60008201527f20746f2074686520757365720000000000000000000000000000000000000000602082015250565b5056fea2646970667358221220137b4d379976d5c5d5d837b43461a3314732903e9a7c5a9d116994f3017e2ba264736f6c63430008040033",
  "linkReferences": {},
  "deployedLinkReferences": {}
}